{
  "contractName": "DecenSong",
  "abi": [
    {
      "inputs": [
        {
          "internalType": "address",
          "name": "_newSigner",
          "type": "address"
        }
      ],
      "stateMutability": "nonpayable",
      "type": "constructor"
    },
    {
      "anonymous": false,
      "inputs": [
        {
          "indexed": true,
          "internalType": "address",
          "name": "owner",
          "type": "address"
        },
        {
          "indexed": true,
          "internalType": "address",
          "name": "approved",
          "type": "address"
        },
        {
          "indexed": true,
          "internalType": "uint256",
          "name": "tokenId",
          "type": "uint256"
        }
      ],
      "name": "Approval",
      "type": "event"
    },
    {
      "anonymous": false,
      "inputs": [
        {
          "indexed": true,
          "internalType": "address",
          "name": "owner",
          "type": "address"
        },
        {
          "indexed": true,
          "internalType": "address",
          "name": "operator",
          "type": "address"
        },
        {
          "indexed": false,
          "internalType": "bool",
          "name": "approved",
          "type": "bool"
        }
      ],
      "name": "ApprovalForAll",
      "type": "event"
    },
    {
      "anonymous": false,
      "inputs": [
        {
          "indexed": true,
          "internalType": "address",
          "name": "previousOwner",
          "type": "address"
        },
        {
          "indexed": true,
          "internalType": "address",
          "name": "newOwner",
          "type": "address"
        }
      ],
      "name": "OwnershipTransferred",
      "type": "event"
    },
    {
      "anonymous": false,
      "inputs": [
        {
          "indexed": true,
          "internalType": "address",
          "name": "from",
          "type": "address"
        },
        {
          "indexed": true,
          "internalType": "address",
          "name": "to",
          "type": "address"
        },
        {
          "indexed": true,
          "internalType": "uint256",
          "name": "tokenId",
          "type": "uint256"
        }
      ],
      "name": "Transfer",
      "type": "event"
    },
    {
      "inputs": [
        {
          "internalType": "address",
          "name": "to",
          "type": "address"
        },
        {
          "internalType": "uint256",
          "name": "tokenId",
          "type": "uint256"
        }
      ],
      "name": "approve",
      "outputs": [],
      "stateMutability": "nonpayable",
      "type": "function"
    },
    {
      "inputs": [
        {
          "internalType": "address",
          "name": "owner",
          "type": "address"
        }
      ],
      "name": "balanceOf",
      "outputs": [
        {
          "internalType": "uint256",
          "name": "",
          "type": "uint256"
        }
      ],
      "stateMutability": "view",
      "type": "function",
      "constant": true
    },
    {
      "inputs": [
        {
          "internalType": "uint256",
          "name": "tokenId",
          "type": "uint256"
        }
      ],
      "name": "burn",
      "outputs": [],
      "stateMutability": "nonpayable",
      "type": "function"
    },
    {
      "inputs": [
        {
          "internalType": "uint256",
          "name": "tokenId",
          "type": "uint256"
        }
      ],
      "name": "getApproved",
      "outputs": [
        {
          "internalType": "address",
          "name": "",
          "type": "address"
        }
      ],
      "stateMutability": "view",
      "type": "function",
      "constant": true
    },
    {
      "inputs": [
        {
          "internalType": "address",
          "name": "owner",
          "type": "address"
        },
        {
          "internalType": "address",
          "name": "operator",
          "type": "address"
        }
      ],
      "name": "isApprovedForAll",
      "outputs": [
        {
          "internalType": "bool",
          "name": "",
          "type": "bool"
        }
      ],
      "stateMutability": "view",
      "type": "function",
      "constant": true
    },
    {
      "inputs": [],
      "name": "name",
      "outputs": [
        {
          "internalType": "string",
          "name": "",
          "type": "string"
        }
      ],
      "stateMutability": "view",
      "type": "function",
      "constant": true
    },
    {
      "inputs": [],
      "name": "owner",
      "outputs": [
        {
          "internalType": "address",
          "name": "",
          "type": "address"
        }
      ],
      "stateMutability": "view",
      "type": "function",
      "constant": true
    },
    {
      "inputs": [
        {
          "internalType": "uint256",
          "name": "tokenId",
          "type": "uint256"
        }
      ],
      "name": "ownerOf",
      "outputs": [
        {
          "internalType": "address",
          "name": "",
          "type": "address"
        }
      ],
      "stateMutability": "view",
      "type": "function",
      "constant": true
    },
    {
      "inputs": [],
      "name": "renounceOwnership",
      "outputs": [],
      "stateMutability": "nonpayable",
      "type": "function"
    },
    {
      "inputs": [
        {
          "internalType": "address",
          "name": "from",
          "type": "address"
        },
        {
          "internalType": "address",
          "name": "to",
          "type": "address"
        },
        {
          "internalType": "uint256",
          "name": "tokenId",
          "type": "uint256"
        }
      ],
      "name": "safeTransferFrom",
      "outputs": [],
      "stateMutability": "nonpayable",
      "type": "function"
    },
    {
      "inputs": [
        {
          "internalType": "address",
          "name": "from",
          "type": "address"
        },
        {
          "internalType": "address",
          "name": "to",
          "type": "address"
        },
        {
          "internalType": "uint256",
          "name": "tokenId",
          "type": "uint256"
        },
        {
          "internalType": "bytes",
          "name": "_data",
          "type": "bytes"
        }
      ],
      "name": "safeTransferFrom",
      "outputs": [],
      "stateMutability": "nonpayable",
      "type": "function"
    },
    {
      "inputs": [
        {
          "internalType": "address",
          "name": "operator",
          "type": "address"
        },
        {
          "internalType": "bool",
          "name": "approved",
          "type": "bool"
        }
      ],
      "name": "setApprovalForAll",
      "outputs": [],
      "stateMutability": "nonpayable",
      "type": "function"
    },
    {
      "inputs": [
        {
          "internalType": "bytes4",
          "name": "interfaceId",
          "type": "bytes4"
        }
      ],
      "name": "supportsInterface",
      "outputs": [
        {
          "internalType": "bool",
          "name": "",
          "type": "bool"
        }
      ],
      "stateMutability": "view",
      "type": "function",
      "constant": true
    },
    {
      "inputs": [],
      "name": "symbol",
      "outputs": [
        {
          "internalType": "string",
          "name": "",
          "type": "string"
        }
      ],
      "stateMutability": "view",
      "type": "function",
      "constant": true
    },
    {
      "inputs": [
        {
          "internalType": "address",
          "name": "from",
          "type": "address"
        },
        {
          "internalType": "address",
          "name": "to",
          "type": "address"
        },
        {
          "internalType": "uint256",
          "name": "tokenId",
          "type": "uint256"
        }
      ],
      "name": "transferFrom",
      "outputs": [],
      "stateMutability": "nonpayable",
      "type": "function"
    },
    {
      "inputs": [
        {
          "internalType": "address",
          "name": "newOwner",
          "type": "address"
        }
      ],
      "name": "transferOwnership",
      "outputs": [],
      "stateMutability": "nonpayable",
      "type": "function"
    },
    {
      "inputs": [
        {
          "internalType": "address",
          "name": "_newSigner",
          "type": "address"
        }
      ],
      "name": "setSigner",
      "outputs": [],
      "stateMutability": "nonpayable",
      "type": "function"
    },
    {
      "inputs": [
        {
          "internalType": "string",
          "name": "uri",
          "type": "string"
        },
        {
          "internalType": "bytes",
          "name": "_signature",
          "type": "bytes"
        },
        {
          "internalType": "uint256",
          "name": "_nonce",
          "type": "uint256"
        }
      ],
      "name": "safeMint",
      "outputs": [],
      "stateMutability": "nonpayable",
      "type": "function"
    },
    {
      "inputs": [
        {
          "internalType": "uint256",
          "name": "tokenId",
          "type": "uint256"
        }
      ],
      "name": "tokenURI",
      "outputs": [
        {
          "internalType": "string",
          "name": "",
          "type": "string"
        }
      ],
      "stateMutability": "view",
      "type": "function",
      "constant": true
    }
  ],
  "bytecode": "0x60806040523480156200001157600080fd5b5060405162004331380380620043318339818101604052810190620000379190620002d4565b6040518060400160405280600981526020017f446563656e536f6e6700000000000000000000000000000000000000000000008152506040518060400160405280600581526020017f44536f6e670000000000000000000000000000000000000000000000000000008152508160009080519060200190620000bb9291906200020d565b508060019080519060200190620000d49291906200020d565b505050620000f7620000eb6200013f60201b60201c565b6200014760201b60201c565b80600960006101000a81548173ffffffffffffffffffffffffffffffffffffffff021916908373ffffffffffffffffffffffffffffffffffffffff16021790555050620003b3565b600033905090565b6000600760009054906101000a900473ffffffffffffffffffffffffffffffffffffffff16905081600760006101000a81548173ffffffffffffffffffffffffffffffffffffffff021916908373ffffffffffffffffffffffffffffffffffffffff1602179055508173ffffffffffffffffffffffffffffffffffffffff168173ffffffffffffffffffffffffffffffffffffffff167f8be0079c531659141344cd1fd0a4f28419497f9722a3daafe3b4186f6b6457e060405160405180910390a35050565b8280546200021b9062000334565b90600052602060002090601f0160209004810192826200023f57600085556200028b565b82601f106200025a57805160ff19168380011785556200028b565b828001600101855582156200028b579182015b828111156200028a5782518255916020019190600101906200026d565b5b5090506200029a91906200029e565b5090565b5b80821115620002b95760008160009055506001016200029f565b5090565b600081519050620002ce8162000399565b92915050565b600060208284031215620002e757600080fd5b6000620002f784828501620002bd565b91505092915050565b60006200030d8262000314565b9050919050565b600073ffffffffffffffffffffffffffffffffffffffff82169050919050565b600060028204905060018216806200034d57607f821691505b602082108114156200036457620003636200036a565b5b50919050565b7f4e487b7100000000000000000000000000000000000000000000000000000000600052602260045260246000fd5b620003a48162000300565b8114620003b057600080fd5b50565b613f6e80620003c36000396000f3fe608060405234801561001057600080fd5b50600436106101215760003560e01c80636c19e783116100ad578063a22cb46511610071578063a22cb465146102f2578063b88d4fde1461030e578063c87b56dd1461032a578063e985e9c51461035a578063f2fde38b1461038a57610121565b80636c19e7831461026057806370a082311461027c578063715018a6146102ac5780638da5cb5b146102b657806395d89b41146102d457610121565b806323b872dd116100f457806323b872dd146101c05780633e797b91146101dc57806342842e0e146101f857806342966c68146102145780636352211e1461023057610121565b806301ffc9a71461012657806306fdde0314610156578063081812fc14610174578063095ea7b3146101a4575b600080fd5b610140600480360381019061013b9190612989565b6103a6565b60405161014d919061302e565b60405180910390f35b61015e610488565b60405161016b919061308e565b60405180910390f35b61018e60048036038101906101899190612a5a565b61051a565b60405161019b9190612fc7565b60405180910390f35b6101be60048036038101906101b9919061294d565b61059f565b005b6101da60048036038101906101d59190612847565b6106b7565b005b6101f660048036038101906101f191906129db565b610717565b005b610212600480360381019061020d9190612847565b6108b6565b005b61022e60048036038101906102299190612a5a565b6108d6565b005b61024a60048036038101906102459190612a5a565b610932565b6040516102579190612fc7565b60405180910390f35b61027a600480360381019061027591906127e2565b6109e4565b005b610296600480360381019061029191906127e2565b610aa4565b6040516102a391906133d0565b60405180910390f35b6102b4610b5c565b005b6102be610be4565b6040516102cb9190612fc7565b60405180910390f35b6102dc610c0e565b6040516102e9919061308e565b60405180910390f35b61030c60048036038101906103079190612911565b610ca0565b005b61032860048036038101906103239190612896565b610cb6565b005b610344600480360381019061033f9190612a5a565b610d18565b604051610351919061308e565b60405180910390f35b610374600480360381019061036f919061280b565b610d2a565b604051610381919061302e565b60405180910390f35b6103a4600480360381019061039f91906127e2565b610dbe565b005b60007f80ac58cd000000000000000000000000000000000000000000000000000000007bffffffffffffffffffffffffffffffffffffffffffffffffffffffff1916827bffffffffffffffffffffffffffffffffffffffffffffffffffffffff1916148061047157507f5b5e139f000000000000000000000000000000000000000000000000000000007bffffffffffffffffffffffffffffffffffffffffffffffffffffffff1916827bffffffffffffffffffffffffffffffffffffffffffffffffffffffff1916145b80610481575061048082610eb6565b5b9050919050565b6060600080546104979061363d565b80601f01602080910402602001604051908101604052809291908181526020018280546104c39061363d565b80156105105780601f106104e557610100808354040283529160200191610510565b820191906000526020600020905b8154815290600101906020018083116104f357829003601f168201915b5050505050905090565b600061052582610f20565b610564576040517f08c379a000000000000000000000000000000000000000000000000000000000815260040161055b90613310565b60405180910390fd5b6004600083815260200190815260200160002060009054906101000a900473ffffffffffffffffffffffffffffffffffffffff169050919050565b60006105aa82610932565b90508073ffffffffffffffffffffffffffffffffffffffff168373ffffffffffffffffffffffffffffffffffffffff16141561061b576040517f08c379a000000000000000000000000000000000000000000000000000000000815260040161061290613370565b60405180910390fd5b8073ffffffffffffffffffffffffffffffffffffffff1661063a610f8c565b73ffffffffffffffffffffffffffffffffffffffff161480610669575061066881610663610f8c565b610d2a565b5b6106a8576040517f08c379a000000000000000000000000000000000000000000000000000000000815260040161069f90613230565b60405180910390fd5b6106b28383610f94565b505050565b6106c86106c2610f8c565b8261104d565b610707576040517f08c379a00000000000000000000000000000000000000000000000000000000081526004016106fe90613390565b60405180910390fd5b61071283838361112b565b505050565b6008600082815260200190815260200160002060009054906101000a900460ff1615610778576040517f08c379a000000000000000000000000000000000000000000000000000000000815260040161076f906130d0565b60405180910390fd5b600033848360405160200161078f93929190612f44565b60405160208183030381529060405280519060200120905060006107b282611392565b9050600960009054906101000a900473ffffffffffffffffffffffffffffffffffffffff1673ffffffffffffffffffffffffffffffffffffffff1661080085836113c290919063ffffffff16565b73ffffffffffffffffffffffffffffffffffffffff1614610856576040517f08c379a000000000000000000000000000000000000000000000000000000000815260040161084d906130f0565b60405180910390fd5b60016008600085815260200190815260200160002060006101000a81548160ff021916908315150217905550600061088e600a6113e9565b905061089a600a6113f7565b6108a4338261140d565b6108ae818761142b565b505050505050565b6108d183838360405180602001604052806000815250610cb6565b505050565b6108e76108e1610f8c565b8261104d565b610926576040517f08c379a000000000000000000000000000000000000000000000000000000000815260040161091d906133b0565b60405180910390fd5b61092f8161149f565b50565b6000806002600084815260200190815260200160002060009054906101000a900473ffffffffffffffffffffffffffffffffffffffff169050600073ffffffffffffffffffffffffffffffffffffffff168173ffffffffffffffffffffffffffffffffffffffff1614156109db576040517f08c379a00000000000000000000000000000000000000000000000000000000081526004016109d290613270565b60405180910390fd5b80915050919050565b6109ec610f8c565b73ffffffffffffffffffffffffffffffffffffffff16610a0a610be4565b73ffffffffffffffffffffffffffffffffffffffff1614610a60576040517f08c379a0000000000000000000000000000000000000000000000000000000008152600401610a5790613330565b60405180910390fd5b80600960006101000a81548173ffffffffffffffffffffffffffffffffffffffff021916908373ffffffffffffffffffffffffffffffffffffffff16021790555050565b60008073ffffffffffffffffffffffffffffffffffffffff168273ffffffffffffffffffffffffffffffffffffffff161415610b15576040517f08c379a0000000000000000000000000000000000000000000000000000000008152600401610b0c90613250565b60405180910390fd5b600360008373ffffffffffffffffffffffffffffffffffffffff1673ffffffffffffffffffffffffffffffffffffffff168152602001908152602001600020549050919050565b610b64610f8c565b73ffffffffffffffffffffffffffffffffffffffff16610b82610be4565b73ffffffffffffffffffffffffffffffffffffffff1614610bd8576040517f08c379a0000000000000000000000000000000000000000000000000000000008152600401610bcf90613330565b60405180910390fd5b610be260006114ab565b565b6000600760009054906101000a900473ffffffffffffffffffffffffffffffffffffffff16905090565b606060018054610c1d9061363d565b80601f0160208091040260200160405190810160405280929190818152602001828054610c499061363d565b8015610c965780601f10610c6b57610100808354040283529160200191610c96565b820191906000526020600020905b815481529060010190602001808311610c7957829003601f168201915b5050505050905090565b610cb2610cab610f8c565b8383611571565b5050565b610cc7610cc1610f8c565b8361104d565b610d06576040517f08c379a0000000000000000000000000000000000000000000000000000000008152600401610cfd90613390565b60405180910390fd5b610d12848484846116de565b50505050565b6060610d238261173a565b9050919050565b6000600560008473ffffffffffffffffffffffffffffffffffffffff1673ffffffffffffffffffffffffffffffffffffffff16815260200190815260200160002060008373ffffffffffffffffffffffffffffffffffffffff1673ffffffffffffffffffffffffffffffffffffffff16815260200190815260200160002060009054906101000a900460ff16905092915050565b610dc6610f8c565b73ffffffffffffffffffffffffffffffffffffffff16610de4610be4565b73ffffffffffffffffffffffffffffffffffffffff1614610e3a576040517f08c379a0000000000000000000000000000000000000000000000000000000008152600401610e3190613330565b60405180910390fd5b600073ffffffffffffffffffffffffffffffffffffffff168173ffffffffffffffffffffffffffffffffffffffff161415610eaa576040517f08c379a0000000000000000000000000000000000000000000000000000000008152600401610ea190613150565b60405180910390fd5b610eb3816114ab565b50565b60007f01ffc9a7000000000000000000000000000000000000000000000000000000007bffffffffffffffffffffffffffffffffffffffffffffffffffffffff1916827bffffffffffffffffffffffffffffffffffffffffffffffffffffffff1916149050919050565b60008073ffffffffffffffffffffffffffffffffffffffff166002600084815260200190815260200160002060009054906101000a900473ffffffffffffffffffffffffffffffffffffffff1673ffffffffffffffffffffffffffffffffffffffff1614159050919050565b600033905090565b816004600083815260200190815260200160002060006101000a81548173ffffffffffffffffffffffffffffffffffffffff021916908373ffffffffffffffffffffffffffffffffffffffff160217905550808273ffffffffffffffffffffffffffffffffffffffff1661100783610932565b73ffffffffffffffffffffffffffffffffffffffff167f8c5be1e5ebec7d5bd14f71427d1e84f3dd0314c0f7b2291e5b200ac8c7c3b92560405160405180910390a45050565b600061105882610f20565b611097576040517f08c379a000000000000000000000000000000000000000000000000000000000815260040161108e90613210565b60405180910390fd5b60006110a283610932565b90508073ffffffffffffffffffffffffffffffffffffffff168473ffffffffffffffffffffffffffffffffffffffff16148061111157508373ffffffffffffffffffffffffffffffffffffffff166110f98461051a565b73ffffffffffffffffffffffffffffffffffffffff16145b8061112257506111218185610d2a565b5b91505092915050565b8273ffffffffffffffffffffffffffffffffffffffff1661114b82610932565b73ffffffffffffffffffffffffffffffffffffffff16146111a1576040517f08c379a000000000000000000000000000000000000000000000000000000000815260040161119890613170565b60405180910390fd5b600073ffffffffffffffffffffffffffffffffffffffff168273ffffffffffffffffffffffffffffffffffffffff161415611211576040517f08c379a0000000000000000000000000000000000000000000000000000000008152600401611208906131b0565b60405180910390fd5b61121c83838361188c565b611227600082610f94565b6001600360008573ffffffffffffffffffffffffffffffffffffffff1673ffffffffffffffffffffffffffffffffffffffff1681526020019081526020016000206000828254611277919061353c565b925050819055506001600360008473ffffffffffffffffffffffffffffffffffffffff1673ffffffffffffffffffffffffffffffffffffffff16815260200190815260200160002060008282546112ce91906134b5565b92505081905550816002600083815260200190815260200160002060006101000a81548173ffffffffffffffffffffffffffffffffffffffff021916908373ffffffffffffffffffffffffffffffffffffffff160217905550808273ffffffffffffffffffffffffffffffffffffffff168473ffffffffffffffffffffffffffffffffffffffff167fddf252ad1be2c89b69c2b068fc378daa952ba7f163c4a11628f55a4df523b3ef60405160405180910390a461138d838383611891565b505050565b6000816040516020016113a59190612fa1565b604051602081830303815290604052805190602001209050919050565b60008060006113d18585611896565b915091506113de81611919565b819250505092915050565b600081600001549050919050565b6001816000016000828254019250508190555050565b611427828260405180602001604052806000815250611c6a565b5050565b61143482610f20565b611473576040517f08c379a000000000000000000000000000000000000000000000000000000000815260040161146a90613290565b60405180910390fd5b8060066000848152602001908152602001600020908051906020019061149a9291906125c6565b505050565b6114a881611cc5565b50565b6000600760009054906101000a900473ffffffffffffffffffffffffffffffffffffffff16905081600760006101000a81548173ffffffffffffffffffffffffffffffffffffffff021916908373ffffffffffffffffffffffffffffffffffffffff1602179055508173ffffffffffffffffffffffffffffffffffffffff168173ffffffffffffffffffffffffffffffffffffffff167f8be0079c531659141344cd1fd0a4f28419497f9722a3daafe3b4186f6b6457e060405160405180910390a35050565b8173ffffffffffffffffffffffffffffffffffffffff168373ffffffffffffffffffffffffffffffffffffffff1614156115e0576040517f08c379a00000000000000000000000000000000000000000000000000000000081526004016115d7906131d0565b60405180910390fd5b80600560008573ffffffffffffffffffffffffffffffffffffffff1673ffffffffffffffffffffffffffffffffffffffff16815260200190815260200160002060008473ffffffffffffffffffffffffffffffffffffffff1673ffffffffffffffffffffffffffffffffffffffff16815260200190815260200160002060006101000a81548160ff0219169083151502179055508173ffffffffffffffffffffffffffffffffffffffff168373ffffffffffffffffffffffffffffffffffffffff167f17307eab39ab6107e8899845ad3d59bd9653f200f220920489ca2b5937696c31836040516116d1919061302e565b60405180910390a3505050565b6116e984848461112b565b6116f584848484611d18565b611734576040517f08c379a000000000000000000000000000000000000000000000000000000000815260040161172b90613130565b60405180910390fd5b50505050565b606061174582610f20565b611784576040517f08c379a000000000000000000000000000000000000000000000000000000000815260040161177b906132f0565b60405180910390fd5b60006006600084815260200190815260200160002080546117a49061363d565b80601f01602080910402602001604051908101604052809291908181526020018280546117d09061363d565b801561181d5780601f106117f25761010080835404028352916020019161181d565b820191906000526020600020905b81548152906001019060200180831161180057829003601f168201915b50505050509050600061182e611eaf565b9050600081511415611844578192505050611887565b600082511115611879578082604051602001611861929190612f7d565b60405160208183030381529060405292505050611887565b61188284611eec565b925050505b919050565b505050565b505050565b6000806041835114156118d85760008060006020860151925060408601519150606086015160001a90506118cc87828585611f93565b94509450505050611912565b6040835114156119095760008060208501519150604085015190506118fe8683836120a0565b935093505050611912565b60006002915091505b9250929050565b60006004811115611953577f4e487b7100000000000000000000000000000000000000000000000000000000600052602160045260246000fd5b81600481111561198c577f4e487b7100000000000000000000000000000000000000000000000000000000600052602160045260246000fd5b141561199757611c67565b600160048111156119d1577f4e487b7100000000000000000000000000000000000000000000000000000000600052602160045260246000fd5b816004811115611a0a577f4e487b7100000000000000000000000000000000000000000000000000000000600052602160045260246000fd5b1415611a4b576040517f08c379a0000000000000000000000000000000000000000000000000000000008152600401611a42906130b0565b60405180910390fd5b60026004811115611a85577f4e487b7100000000000000000000000000000000000000000000000000000000600052602160045260246000fd5b816004811115611abe577f4e487b7100000000000000000000000000000000000000000000000000000000600052602160045260246000fd5b1415611aff576040517f08c379a0000000000000000000000000000000000000000000000000000000008152600401611af690613110565b60405180910390fd5b60036004811115611b39577f4e487b7100000000000000000000000000000000000000000000000000000000600052602160045260246000fd5b816004811115611b72577f4e487b7100000000000000000000000000000000000000000000000000000000600052602160045260246000fd5b1415611bb3576040517f08c379a0000000000000000000000000000000000000000000000000000000008152600401611baa906131f0565b60405180910390fd5b600480811115611bec577f4e487b7100000000000000000000000000000000000000000000000000000000600052602160045260246000fd5b816004811115611c25577f4e487b7100000000000000000000000000000000000000000000000000000000600052602160045260246000fd5b1415611c66576040517f08c379a0000000000000000000000000000000000000000000000000000000008152600401611c5d906132b0565b60405180910390fd5b5b50565b611c7483836120ff565b611c816000848484611d18565b611cc0576040517f08c379a0000000000000000000000000000000000000000000000000000000008152600401611cb790613130565b60405180910390fd5b505050565b611cce816122d9565b6000600660008381526020019081526020016000208054611cee9061363d565b905014611d1557600660008281526020019081526020016000206000611d14919061264c565b5b50565b6000611d398473ffffffffffffffffffffffffffffffffffffffff166123f6565b15611ea2578373ffffffffffffffffffffffffffffffffffffffff1663150b7a02611d62610f8c565b8786866040518563ffffffff1660e01b8152600401611d849493929190612fe2565b602060405180830381600087803b158015611d9e57600080fd5b505af1925050508015611dcf57506040513d601f19601f82011682018060405250810190611dcc91906129b2565b60015b611e52573d8060008114611dff576040519150601f19603f3d011682016040523d82523d6000602084013e611e04565b606091505b50600081511415611e4a576040517f08c379a0000000000000000000000000000000000000000000000000000000008152600401611e4190613130565b60405180910390fd5b805181602001fd5b63150b7a0260e01b7bffffffffffffffffffffffffffffffffffffffffffffffffffffffff1916817bffffffffffffffffffffffffffffffffffffffffffffffffffffffff191614915050611ea7565b600190505b949350505050565b60606040518060400160405280600781526020017f697066733a2f2f00000000000000000000000000000000000000000000000000815250905090565b6060611ef782610f20565b611f36576040517f08c379a0000000000000000000000000000000000000000000000000000000008152600401611f2d90613350565b60405180910390fd5b6000611f40611eaf565b90506000815111611f605760405180602001604052806000815250611f8b565b80611f6a84612419565b604051602001611f7b929190612f7d565b6040516020818303038152906040525b915050919050565b6000807f7fffffffffffffffffffffffffffffff5d576e7357a4501ddfe92f46681b20a08360001c1115611fce576000600391509150612097565b601b8560ff1614158015611fe65750601c8560ff1614155b15611ff8576000600491509150612097565b60006001878787876040516000815260200160405260405161201d9493929190613049565b6020604051602081039080840390855afa15801561203f573d6000803e3d6000fd5b505050602060405103519050600073ffffffffffffffffffffffffffffffffffffffff168173ffffffffffffffffffffffffffffffffffffffff16141561208e57600060019250925050612097565b80600092509250505b94509492505050565b60008060007f7fffffffffffffffffffffffffffffffffffffffffffffffffffffffffffffff60001b841690506000601b60ff8660001c901c6120e391906134b5565b90506120f187828885611f93565b935093505050935093915050565b600073ffffffffffffffffffffffffffffffffffffffff168273ffffffffffffffffffffffffffffffffffffffff16141561216f576040517f08c379a0000000000000000000000000000000000000000000000000000000008152600401612166906132d0565b60405180910390fd5b61217881610f20565b156121b8576040517f08c379a00000000000000000000000000000000000000000000000000000000081526004016121af90613190565b60405180910390fd5b6121c46000838361188c565b6001600360008473ffffffffffffffffffffffffffffffffffffffff1673ffffffffffffffffffffffffffffffffffffffff168152602001908152602001600020600082825461221491906134b5565b92505081905550816002600083815260200190815260200160002060006101000a81548173ffffffffffffffffffffffffffffffffffffffff021916908373ffffffffffffffffffffffffffffffffffffffff160217905550808273ffffffffffffffffffffffffffffffffffffffff16600073ffffffffffffffffffffffffffffffffffffffff167fddf252ad1be2c89b69c2b068fc378daa952ba7f163c4a11628f55a4df523b3ef60405160405180910390a46122d560008383611891565b5050565b60006122e482610932565b90506122f28160008461188c565b6122fd600083610f94565b6001600360008373ffffffffffffffffffffffffffffffffffffffff1673ffffffffffffffffffffffffffffffffffffffff168152602001908152602001600020600082825461234d919061353c565b925050819055506002600083815260200190815260200160002060006101000a81549073ffffffffffffffffffffffffffffffffffffffff021916905581600073ffffffffffffffffffffffffffffffffffffffff168273ffffffffffffffffffffffffffffffffffffffff167fddf252ad1be2c89b69c2b068fc378daa952ba7f163c4a11628f55a4df523b3ef60405160405180910390a46123f281600084611891565b5050565b6000808273ffffffffffffffffffffffffffffffffffffffff163b119050919050565b60606000821415612461576040518060400160405280600181526020017f300000000000000000000000000000000000000000000000000000000000000081525090506125c1565b600082905060005b6000821461249357808061247c906136a0565b915050600a8261248c919061350b565b9150612469565b60008167ffffffffffffffff8111156124d5577f4e487b7100000000000000000000000000000000000000000000000000000000600052604160045260246000fd5b6040519080825280601f01601f1916602001820160405280156125075781602001600182028036833780820191505090505b5090505b600085146125ba57600182612520919061353c565b9150600a8561252f9190613721565b603061253b91906134b5565b60f81b818381518110612577577f4e487b7100000000000000000000000000000000000000000000000000000000600052603260045260246000fd5b60200101907effffffffffffffffffffffffffffffffffffffffffffffffffffffffffffff1916908160001a905350600a856125b3919061350b565b945061250b565b8093505050505b919050565b8280546125d29061363d565b90600052602060002090601f0160209004810192826125f4576000855561263b565b82601f1061260d57805160ff191683800117855561263b565b8280016001018555821561263b579182015b8281111561263a57825182559160200191906001019061261f565b5b509050612648919061268c565b5090565b5080546126589061363d565b6000825580601f1061266a5750612689565b601f016020900490600052602060002090810190612688919061268c565b5b50565b5b808211156126a557600081600090555060010161268d565b5090565b60006126bc6126b784613410565b6133eb565b9050828152602081018484840111156126d457600080fd5b6126df8482856135fb565b509392505050565b60006126fa6126f584613441565b6133eb565b90508281526020810184848401111561271257600080fd5b61271d8482856135fb565b509392505050565b60008135905061273481613edc565b92915050565b60008135905061274981613ef3565b92915050565b60008135905061275e81613f0a565b92915050565b60008151905061277381613f0a565b92915050565b600082601f83011261278a57600080fd5b813561279a8482602086016126a9565b91505092915050565b600082601f8301126127b457600080fd5b81356127c48482602086016126e7565b91505092915050565b6000813590506127dc81613f21565b92915050565b6000602082840312156127f457600080fd5b600061280284828501612725565b91505092915050565b6000806040838503121561281e57600080fd5b600061282c85828601612725565b925050602061283d85828601612725565b9150509250929050565b60008060006060848603121561285c57600080fd5b600061286a86828701612725565b935050602061287b86828701612725565b925050604061288c868287016127cd565b9150509250925092565b600080600080608085870312156128ac57600080fd5b60006128ba87828801612725565b94505060206128cb87828801612725565b93505060406128dc878288016127cd565b925050606085013567ffffffffffffffff8111156128f957600080fd5b61290587828801612779565b91505092959194509250565b6000806040838503121561292457600080fd5b600061293285828601612725565b92505060206129438582860161273a565b9150509250929050565b6000806040838503121561296057600080fd5b600061296e85828601612725565b925050602061297f858286016127cd565b9150509250929050565b60006020828403121561299b57600080fd5b60006129a98482850161274f565b91505092915050565b6000602082840312156129c457600080fd5b60006129d284828501612764565b91505092915050565b6000806000606084860312156129f057600080fd5b600084013567ffffffffffffffff811115612a0a57600080fd5b612a16868287016127a3565b935050602084013567ffffffffffffffff811115612a3357600080fd5b612a3f86828701612779565b9250506040612a50868287016127cd565b9150509250925092565b600060208284031215612a6c57600080fd5b6000612a7a848285016127cd565b91505092915050565b612a8c81613570565b82525050565b612aa3612a9e82613570565b6136e9565b82525050565b612ab281613582565b82525050565b612ac18161358e565b82525050565b612ad8612ad38261358e565b6136fb565b82525050565b6000612ae982613472565b612af38185613488565b9350612b0381856020860161360a565b612b0c8161380e565b840191505092915050565b6000612b228261347d565b612b2c8185613499565b9350612b3c81856020860161360a565b612b458161380e565b840191505092915050565b6000612b5b8261347d565b612b6581856134aa565b9350612b7581856020860161360a565b80840191505092915050565b6000612b8e601883613499565b9150612b998261382c565b602082019050919050565b6000612bb1600d83613499565b9150612bbc82613855565b602082019050919050565b6000612bd4601183613499565b9150612bdf8261387e565b602082019050919050565b6000612bf7601f83613499565b9150612c02826138a7565b602082019050919050565b6000612c1a601c836134aa565b9150612c25826138d0565b601c82019050919050565b6000612c3d603283613499565b9150612c48826138f9565b604082019050919050565b6000612c60602683613499565b9150612c6b82613948565b604082019050919050565b6000612c83602583613499565b9150612c8e82613997565b604082019050919050565b6000612ca6601c83613499565b9150612cb1826139e6565b602082019050919050565b6000612cc9602483613499565b9150612cd482613a0f565b604082019050919050565b6000612cec601983613499565b9150612cf782613a5e565b602082019050919050565b6000612d0f602283613499565b9150612d1a82613a87565b604082019050919050565b6000612d32602c83613499565b9150612d3d82613ad6565b604082019050919050565b6000612d55603883613499565b9150612d6082613b25565b604082019050919050565b6000612d78602a83613499565b9150612d8382613b74565b604082019050919050565b6000612d9b602983613499565b9150612da682613bc3565b604082019050919050565b6000612dbe602e83613499565b9150612dc982613c12565b604082019050919050565b6000612de1602283613499565b9150612dec82613c61565b604082019050919050565b6000612e04602083613499565b9150612e0f82613cb0565b602082019050919050565b6000612e27603183613499565b9150612e3282613cd9565b604082019050919050565b6000612e4a602c83613499565b9150612e5582613d28565b604082019050919050565b6000612e6d602083613499565b9150612e7882613d77565b602082019050919050565b6000612e90602f83613499565b9150612e9b82613da0565b604082019050919050565b6000612eb3602183613499565b9150612ebe82613def565b604082019050919050565b6000612ed6603183613499565b9150612ee182613e3e565b604082019050919050565b6000612ef9603083613499565b9150612f0482613e8d565b604082019050919050565b612f18816135e4565b82525050565b612f2f612f2a826135e4565b613717565b82525050565b612f3e816135ee565b82525050565b6000612f508286612a92565b601482019150612f608285612b50565b9150612f6c8284612f1e565b602082019150819050949350505050565b6000612f898285612b50565b9150612f958284612b50565b91508190509392505050565b6000612fac82612c0d565b9150612fb88284612ac7565b60208201915081905092915050565b6000602082019050612fdc6000830184612a83565b92915050565b6000608082019050612ff76000830187612a83565b6130046020830186612a83565b6130116040830185612f0f565b81810360608301526130238184612ade565b905095945050505050565b60006020820190506130436000830184612aa9565b92915050565b600060808201905061305e6000830187612ab8565b61306b6020830186612f35565b6130786040830185612ab8565b6130856060830184612ab8565b95945050505050565b600060208201905081810360008301526130a88184612b17565b905092915050565b600060208201905081810360008301526130c981612b81565b9050919050565b600060208201905081810360008301526130e981612ba4565b9050919050565b6000602082019050818103600083015261310981612bc7565b9050919050565b6000602082019050818103600083015261312981612bea565b9050919050565b6000602082019050818103600083015261314981612c30565b9050919050565b6000602082019050818103600083015261316981612c53565b9050919050565b6000602082019050818103600083015261318981612c76565b9050919050565b600060208201905081810360008301526131a981612c99565b9050919050565b600060208201905081810360008301526131c981612cbc565b9050919050565b600060208201905081810360008301526131e981612cdf565b9050919050565b6000602082019050818103600083015261320981612d02565b9050919050565b6000602082019050818103600083015261322981612d25565b9050919050565b6000602082019050818103600083015261324981612d48565b9050919050565b6000602082019050818103600083015261326981612d6b565b9050919050565b6000602082019050818103600083015261328981612d8e565b9050919050565b600060208201905081810360008301526132a981612db1565b9050919050565b600060208201905081810360008301526132c981612dd4565b9050919050565b600060208201905081810360008301526132e981612df7565b9050919050565b6000602082019050818103600083015261330981612e1a565b9050919050565b6000602082019050818103600083015261332981612e3d565b9050919050565b6000602082019050818103600083015261334981612e60565b9050919050565b6000602082019050818103600083015261336981612e83565b9050919050565b6000602082019050818103600083015261338981612ea6565b9050919050565b600060208201905081810360008301526133a981612ec9565b9050919050565b600060208201905081810360008301526133c981612eec565b9050919050565b60006020820190506133e56000830184612f0f565b92915050565b60006133f5613406565b9050613401828261366f565b919050565b6000604051905090565b600067ffffffffffffffff82111561342b5761342a6137df565b5b6134348261380e565b9050602081019050919050565b600067ffffffffffffffff82111561345c5761345b6137df565b5b6134658261380e565b9050602081019050919050565b600081519050919050565b600081519050919050565b600082825260208201905092915050565b600082825260208201905092915050565b600081905092915050565b60006134c0826135e4565b91506134cb836135e4565b9250827fffffffffffffffffffffffffffffffffffffffffffffffffffffffffffffffff03821115613500576134ff613752565b5b828201905092915050565b6000613516826135e4565b9150613521836135e4565b92508261353157613530613781565b5b828204905092915050565b6000613547826135e4565b9150613552836135e4565b92508282101561356557613564613752565b5b828203905092915050565b600061357b826135c4565b9050919050565b60008115159050919050565b6000819050919050565b60007fffffffff0000000000000000000000000000000000000000000000000000000082169050919050565b600073ffffffffffffffffffffffffffffffffffffffff82169050919050565b6000819050919050565b600060ff82169050919050565b82818337600083830152505050565b60005b8381101561362857808201518184015260208101905061360d565b83811115613637576000848401525b50505050565b6000600282049050600182168061365557607f821691505b60208210811415613669576136686137b0565b5b50919050565b6136788261380e565b810181811067ffffffffffffffff82111715613697576136966137df565b5b80604052505050565b60006136ab826135e4565b91507fffffffffffffffffffffffffffffffffffffffffffffffffffffffffffffffff8214156136de576136dd613752565b5b600182019050919050565b60006136f482613705565b9050919050565b6000819050919050565b60006137108261381f565b9050919050565b6000819050919050565b600061372c826135e4565b9150613737836135e4565b92508261374757613746613781565b5b828206905092915050565b7f4e487b7100000000000000000000000000000000000000000000000000000000600052601160045260246000fd5b7f4e487b7100000000000000000000000000000000000000000000000000000000600052601260045260246000fd5b7f4e487b7100000000000000000000000000000000000000000000000000000000600052602260045260246000fd5b7f4e487b7100000000000000000000000000000000000000000000000000000000600052604160045260246000fd5b6000601f19601f8301169050919050565b60008160601b9050919050565b7f45434453413a20696e76616c6964207369676e61747572650000000000000000600082015250565b7f496e76616c6964204e6f6e636500000000000000000000000000000000000000600082015250565b7f696e76616c6964207369676e6174757265000000000000000000000000000000600082015250565b7f45434453413a20696e76616c6964207369676e6174757265206c656e67746800600082015250565b7f19457468657265756d205369676e6564204d6573736167653a0a333200000000600082015250565b7f4552433732313a207472616e7366657220746f206e6f6e20455243373231526560008201527f63656976657220696d706c656d656e7465720000000000000000000000000000602082015250565b7f4f776e61626c653a206e6577206f776e657220697320746865207a65726f206160008201527f6464726573730000000000000000000000000000000000000000000000000000602082015250565b7f4552433732313a207472616e736665722066726f6d20696e636f72726563742060008201527f6f776e6572000000000000000000000000000000000000000000000000000000602082015250565b7f4552433732313a20746f6b656e20616c7265616479206d696e74656400000000600082015250565b7f4552433732313a207472616e7366657220746f20746865207a65726f2061646460008201527f7265737300000000000000000000000000000000000000000000000000000000602082015250565b7f4552433732313a20617070726f766520746f2063616c6c657200000000000000600082015250565b7f45434453413a20696e76616c6964207369676e6174757265202773272076616c60008201527f7565000000000000000000000000000000000000000000000000000000000000602082015250565b7f4552433732313a206f70657261746f7220717565727920666f72206e6f6e657860008201527f697374656e7420746f6b656e0000000000000000000000000000000000000000602082015250565b7f4552433732313a20617070726f76652063616c6c6572206973206e6f74206f7760008201527f6e6572206e6f7220617070726f76656420666f7220616c6c0000000000000000602082015250565b7f4552433732313a2062616c616e636520717565727920666f7220746865207a6560008201527f726f206164647265737300000000000000000000000000000000000000000000602082015250565b7f4552433732313a206f776e657220717565727920666f72206e6f6e657869737460008201527f656e7420746f6b656e0000000000000000000000000000000000000000000000602082015250565b7f45524337323155524953746f726167653a2055524920736574206f66206e6f6e60008201527f6578697374656e7420746f6b656e000000000000000000000000000000000000602082015250565b7f45434453413a20696e76616c6964207369676e6174757265202776272076616c60008201527f7565000000000000000000000000000000000000000000000000000000000000602082015250565b7f4552433732313a206d696e7420746f20746865207a65726f2061646472657373600082015250565b7f45524337323155524953746f726167653a2055524920717565727920666f722060008201527f6e6f6e6578697374656e7420746f6b656e000000000000000000000000000000602082015250565b7f4552433732313a20617070726f76656420717565727920666f72206e6f6e657860008201527f697374656e7420746f6b656e0000000000000000000000000000000000000000602082015250565b7f4f776e61626c653a2063616c6c6572206973206e6f7420746865206f776e6572600082015250565b7f4552433732314d657461646174613a2055524920717565727920666f72206e6f60008201527f6e6578697374656e7420746f6b656e0000000000000000000000000000000000602082015250565b7f4552433732313a20617070726f76616c20746f2063757272656e74206f776e6560008201527f7200000000000000000000000000000000000000000000000000000000000000602082015250565b7f4552433732313a207472616e736665722063616c6c6572206973206e6f74206f60008201527f776e6572206e6f7220617070726f766564000000000000000000000000000000602082015250565b7f4552433732314275726e61626c653a2063616c6c6572206973206e6f74206f7760008201527f6e6572206e6f7220617070726f76656400000000000000000000000000000000602082015250565b613ee581613570565b8114613ef057600080fd5b50565b613efc81613582565b8114613f0757600080fd5b50565b613f1381613598565b8114613f1e57600080fd5b50565b613f2a816135e4565b8114613f3557600080fd5b5056fea2646970667358221220b23b403dfbe74b2409704f727dac626fbaa627f4ff7cc2e2ccb4e0a6274eea9264736f6c63430008040033",
  "immutableReferences": {},
  "source": "// SPDX-License-Identifier: MIT\npragma solidity ^0.8.4;\n\nimport \"@openzeppelin/contracts/token/ERC721/ERC721.sol\";\nimport \"@openzeppelin/contracts/token/ERC721/extensions/ERC721URIStorage.sol\";\nimport \"@openzeppelin/contracts/token/ERC721/extensions/ERC721Burnable.sol\";\nimport \"@openzeppelin/contracts/access/Ownable.sol\";\nimport \"@openzeppelin/contracts/utils/Counters.sol\";\nimport \"@openzeppelin/contracts/utils/cryptography/ECDSA.sol\";\n\n/// @custom:security-contact yashgo0018@gmail.com\ncontract DecenSong is ERC721, ERC721URIStorage, ERC721Burnable, Ownable {\n    using ECDSA for bytes32;\n    using Counters for Counters.Counter;\n\n    mapping(uint256 => bool) private usedNonce;\n    address private _signer;\n    Counters.Counter private _tokenIdCounter;\n\n    constructor(address _newSigner) ERC721(\"DecenSong\", \"DSong\") {\n        _signer = _newSigner;\n    }\n\n    function setSigner(address _newSigner) public onlyOwner {\n        _signer = _newSigner;\n    }\n\n    function _baseURI() internal pure override returns (string memory) {\n        return \"ipfs://\";\n    }\n\n    function safeMint(\n        string memory uri,\n        bytes memory _signature,\n        uint256 _nonce\n    ) public {\n        require(!usedNonce[_nonce], \"Invalid Nonce\");\n        bytes32 hash = keccak256(abi.encodePacked(msg.sender, uri, _nonce));\n        bytes32 messageHash = hash.toEthSignedMessageHash();\n        require(\n            messageHash.recover(_signature) == _signer,\n            \"invalid signature\"\n        );\n        usedNonce[_nonce] = true;\n        uint256 tokenId = _tokenIdCounter.current();\n        _tokenIdCounter.increment();\n        _safeMint(msg.sender, tokenId);\n        _setTokenURI(tokenId, uri);\n    }\n\n    // The following functions are overrides required by Solidity.\n\n    function _burn(uint256 tokenId)\n        internal\n        override(ERC721, ERC721URIStorage)\n    {\n        super._burn(tokenId);\n    }\n\n    function tokenURI(uint256 tokenId)\n        public\n        view\n        override(ERC721, ERC721URIStorage)\n        returns (string memory)\n    {\n        return super.tokenURI(tokenId);\n    }\n}\n",
  "sourcePath": "/Users/yash/Development/blockchain_projects/decenMusic/dapp/src/contracts/DecenSong.sol",
  "compiler": {
    "name": "solc",
    "version": "0.8.4+commit.c7e474f2.Emscripten.clang"
  },
  "schemaVersion": "3.4.3",
  "updatedAt": "2022-03-25T20:58:41.216Z",
  "networkType": "ethereum",
  "devdoc": {
    "custom:security-contact": "yashgo0018@gmail.com",
    "kind": "dev",
    "methods": {
      "approve(address,uint256)": {
        "details": "See {IERC721-approve}."
      },
      "balanceOf(address)": {
        "details": "See {IERC721-balanceOf}."
      },
      "burn(uint256)": {
        "details": "Burns `tokenId`. See {ERC721-_burn}. Requirements: - The caller must own `tokenId` or be an approved operator."
      },
      "getApproved(uint256)": {
        "details": "See {IERC721-getApproved}."
      },
      "isApprovedForAll(address,address)": {
        "details": "See {IERC721-isApprovedForAll}."
      },
      "name()": {
        "details": "See {IERC721Metadata-name}."
      },
      "owner()": {
        "details": "Returns the address of the current owner."
      },
      "ownerOf(uint256)": {
        "details": "See {IERC721-ownerOf}."
      },
      "renounceOwnership()": {
        "details": "Leaves the contract without owner. It will not be possible to call `onlyOwner` functions anymore. Can only be called by the current owner. NOTE: Renouncing ownership will leave the contract without an owner, thereby removing any functionality that is only available to the owner."
      },
      "safeTransferFrom(address,address,uint256)": {
        "details": "See {IERC721-safeTransferFrom}."
      },
      "safeTransferFrom(address,address,uint256,bytes)": {
        "details": "See {IERC721-safeTransferFrom}."
      },
      "setApprovalForAll(address,bool)": {
        "details": "See {IERC721-setApprovalForAll}."
      },
      "supportsInterface(bytes4)": {
        "details": "See {IERC165-supportsInterface}."
      },
      "symbol()": {
        "details": "See {IERC721Metadata-symbol}."
      },
      "transferFrom(address,address,uint256)": {
        "details": "See {IERC721-transferFrom}."
      },
      "transferOwnership(address)": {
        "details": "Transfers ownership of the contract to a new account (`newOwner`). Can only be called by the current owner."
      }
    },
    "version": 1
  },
  "userdoc": {
    "kind": "user",
    "methods": {},
    "version": 1
  }
}